:020000040800F2
:10000000A8880020B1EE0008E5F00008E7F000083D
:10001000EBF00008EFF00008F3F00008000000002B
:10002000000000000000000000000000F7F00008E1
:10003000F9F0000800000000FBF00008FDF00008E7
:10004000CBEE0008CBEE0008CBEE0008CBEE0008AC
:10005000CBEE0008CBEE0008CBEE0008CBEE00089C
:10006000CBEE0008CBEE0008CBEE0008CBEE00088C
:10007000CBEE0008CBEE0008DB8B0008738E000887
:10008000CBEE00083F890008CBEE00086383000830
:1000900079830008CBEE0008CBEE0008CBEE000819
:1000A000CBEE0008CBEE0008CBEE0008CBEE00084C
:1000B00065810008CBEE00080B810008CBEE00083C
:1000C000CBEE0008CBEE0008CBEE0008CBEE00082C
:1000D000CBEE00081B860008D9880008838B000837
:1000E000CBEE0008CBEE0008CBEE0008CBEE00080C
:1000F000CBEE0008CBEE0008CBEE0008CBEE0008FC
:10010000CBEE0008CBEE0008CBEE0008CBEE0008EB
:100110000B8E00089D7500087F800008CBEE00085C
:10012000CBEE0008CBEE0008CBEE0008CBEE0008CB
:10013000CBEE0008CBEE0008CBEE00089F84000851
:10014000B5840008CBEE0008CBEE0008CBEE00082B
:10015000CBEE0008CBEE0008CBEE000851E600081D
:10016000CBEE0008CBEE0008CBEE0008CBEE00088B
:10017000CBEE0008CBEE0008CBEE0008CBEE00087B
:10018000CBEE0008CBEE0008DFF810D013F056F9E4
:1001900000480047A1010008AFF30080A8880020B4
:1001A00007F09EFE1B484FF4FA71C2699047194848
:1001B000816988472CE0C8200EF0FBFD1648B0F995
:1001C0000000164908601448B0F90200486012485F
:1001D000B0F9040088601048B0F90600C86008460D
:1001E00008F0A7FE0C48807A012807D109484FF48F
:1001F000FA71C269904707488169884705480169D3
:100200008847DFED070A20EE200A064880ED000A45
:10021000D1E700000000002030070020A0060020E9
:1002200000007A452400002010B582480068401C78
:10023000804908600FF0D7FF0EF0E3FB7D480068AF
:100240004FF49671B0FBF1F201FB120018B90221D4
:1002500079480FF07DFF7748006864304FF496715D
:10026000B0FBF1F201FB120018B9022172480FF045
:100270006DFF704800680321B0FBF1F201FB120032
:1002800078B905F078F904F06EFC07F065FC6B486E
:1002900000686B4908606B48C06C6849086004F0EE
:1002A00061F8644800680321B0FBF1F201FB120021
:1002B000012803D105F03AFE03F044FE5D480068D2
:1002C0000321B0FBF1F201FB120038B95E48D0ED1A
:1002D000000A5E4890ED000A06F03FFD55480068B0
:1002E0001921B0FBF1F201FB1200012801D10BF042
:1002F00078FE5048007800F0010020B906F033FB8A
:1003000001F0C0F816E04B4800680A21B0FBF1F29A
:1003100001FB1200092802D101F037FC0AE0454830
:1003200000680A21B0FBF1F201FB1200052801D19F
:1003300001F0E7FB3F4800686421B0FBF1F201FBEC
:10034000120038B942480068424908603D48806B55
:100350003F49086010BD10B500203649086001F023
:100360000BFD04F07FFF04F015F801F089FC05F0A7
:1003700068FE07F05FFC38484FF47A61C269904725
:1003800036484FF47A61C269904735484FF47A7124
:10039000C269314890473048816988472F48816950
:1003A00088472F488169884707F0AAFC002006F09B
:1003B000D1FA044612F026FC012006F0CBFA0446DE
:1003C00012F020FC022006F0C5FA044612F01AFCD6
:1003D000032006F0BFFA044612F014FC042006F0D5
:1003E000B9FA044612F00EFC052006F0B3FA0446F2
:1003F00012F008FC062006F0ADFA044612F002FCEA
:10040000072006F0A7FA044612F0FCFB082006F0CD
:10041000A1FA044612F0F6FB092006F09BFA044606
:1004200012F0F0FB0A2006F095FA044612F0EAFBFF
:1004300010BD0000A4000020000802409C00002025
:10044000A0000020480900202006002018060020F7
:100450009400002098000020280000207000002058
:100460004C000020F0EE400AB3EE000AF4EEC00AA1
:10047000F1EE10FA03DD9620F749086010E0B2EEC5
:100480000A0A30EEC00AB0EE081AC0EE011A9FED5B
:10049000F30A21EE800ABDEEC00AEF4880ED000AA3
:1004A000ED480068002803DC0020EB49086006E006
:1004B000E9480068962802DB9620E7490860E6488C
:1004C00090ED000AB8EEC00A704700B52DED0A8B1A
:1004D00089B0B0EE409A002023E000EB400101EB30
:1004E0000011DF4A02EB810191ED000A00EB4001AF
:1004F00001EB001102EB8101D1ED020A70EE200A3E
:10050000D84901EB4001B1F9001000EE101AB8EE25
:10051000C00A20EE800A05A901EB800181ED000AE6
:10052000401C0428D9DB00204AE000EB400101EB2D
:100530000011CB4A02EB810191ED090A00EB400169
:1005400001EB001102EB8101D1ED000AB1EE601A5E
:10055000C449083901EB4001B1F9001000EE901ACE
:10056000F8EEE00A01EE200A00EB400101EB001179
:1005700002EB810191ED021ABA49083901EB400101
:10058000B1F9001000EE901AF8EEE00A01EE600AF0
:1005900000EB400101EB001102EB8101D1ED020AF9
:1005A00000EB400101EB001102EB810191ED061A15
:1005B00000EEC10A01A901EB800181ED000A401C97
:1005C0000428B2DB9DED050A20EE000ADDED060AE7
:1005D0009DED061A00EE810ADDED070A9DED071A72
:1005E00000EE810ADDED080A9DED081A00EE810A91
:1005F000DFED9D0A20EE208A9DED050ADDED010A62
:1006000020EE200ADDED060A9DED021A00EE810AB9
:10061000DDED070A9DED031A00EE810ADDED080A03
:100620009DED041A00EE810ADFED900A20EE200A0B
:10063000DDED050A9DED061A70EE810A9DED071AA3
:1006400070EE810A9DED081A70EE810A9FED881AFE
:1006500001EE200A9DED051A82482A38B0F92200E1
:1006600000EE900AF8EEE00A61EE200ADDED061ACF
:100670007C482A38B0F9240001EE100AB8EEC11AFD
:1006800041EE810ADDED071A76482A38B0F92600D6
:1006900001EE100AB8EEC11A41EE810ADDED081A2A
:1006A00070482A38B0F9280001EE100AB8EEC11AD5
:1006B00041EE810A9FED6F1AF0EE408A41EE208AEA
:1006C0009DED010A20EE000ADDED020A9DED021A01
:1006D00000EE810ADDED030A9DED031A00EE810AAA
:1006E000DDED040A9DED041A00EE810ADFED5E0ADD
:1006F00020EE200ADDED010A9DED021A70EE810A5E
:100700009DED031A70EE810A9DED041A70EE810AC8
:100710009FED571A00EE810A9DED011A51482A38C3
:10072000B0F9220000EE900AF8EEE00A61EE200A2D
:10073000DDED021A4B482A38B0F9240001EE100A08
:10074000B8EEC11A41EE810ADDED031A45482A3898
:10075000B0F9260001EE100AB8EEC11A41EE810A86
:10076000DDED041A3F482A38B0F9280001EE100ADE
:10077000B8EEC11A41EE810A9FED3E1A01EE200A41
:10078000DFED3D0A30EE200A70EE499A28EEA80A05
:10079000F1EE000A68EE200A00EEE90A10EE101AE7
:1007A000084612F0C8FC41EC1C0B9FED340B53ECD7
:1007B000102B12F0E2FA41EC1B0BB0EE4B0AF0EEFC
:1007C0006B0A13F0E5F8B0EE40AAF0EE60AA51EC27
:1007D0001A0B12F0F3FC00EE100AF1EE680A70EE4C
:1007E000200AB0EE000A28EE001A80EE810A09B055
:1007F000BDEC0A8B00BD10B52DED028B2148808920
:1008000000EE100AB8EE400A1F4880ED000AD0ED55
:10081000000A9FED1E1A80EE810A10EE100A1C4994
:10082000C1F802000846D0F8020000EE100AFFF7F7
:1008300019FEB0EE408AFFF748FE164880ED000A28
:1008400090ED000AB5EEC00AF1EE10FA26D89FED41
:10085000120A80ED000A2FE010010020000048433A
:10086000BC670020EB06002058DF2C3458DFAC3486
:100870006019C0B7DFC6C137FA7EEA3F000000004A
:100880000000F03F950B0020140100200000C8423A
:10089000580B0020B800002000000000FE4890ED3A
:1008A000000AF7EE000AB4EEE00AF1EE10FA03DBFC
:1008B000B7EE000A80ED000ABDEC028B10BD0CB54E
:1008C00001461FED0B2AF0EE421AB1EE402A32EE3D
:1008D000202ADFEDF22A01EE222AF0EE002A22EE93
:1008E000222ABDEEC22A12EE100A00B2ADF80000B4
:1008F00030EE202ADFEDE92A01EE222AF0EE002A6E
:1009000022EE222ABDEEC22A12EE100A00B2ADF883
:10091000020030EE602ADFEDE12A01EE222AF0EE3D
:10092000002A22EE222ABDEEC22A12EE100A00B2DE
:10093000ADF80400B1EE402A32EE602ADFEDD72A8E
:1009400001EE222AF0EE002A22EE222ABDEEC22A71
:1009500012EE100A00B2ADF8060000201EE03DF9CC
:100960001020002A01DB134600E0534202EE103A49
:10097000B8EEC22AB4EEE12AF1EE10FA0CDD3DF930
:100980001020002A01DB134600E0534202EE103A29
:10099000B8EEC22AF0EE421A421CD0B20428DEDBC6
:1009A0009FEDBF2AF4EEC21AF1EE10FA1BDDDFED67
:1009B000BC2A82EEA13AB0EE432A002010E03DF9B5
:1009C000102002EE902AF8EEE22A62EE822AFDEE74
:1009D000E22A12EE902A12B22DF81020421CD0B258
:1009E0000428ECDB00BF00980860019848600CBD4B
:1009F00010B50020AB4908709FEDAB0B51EC100B0C
:100A0000AB4A9060D1609FEDA80B51EC100B1060C9
:100A100051609FEDA50B51EC100B10615161A54881
:100A200011F09BF9A44811F098F9A3484C3011F04B
:100A300094F9A148983011F090F99F48E43011F0F2
:100A40008CF910BD10B52DED028B9C480078C8B113
:100A50009B49B1F9020012F018FB41EC180B9FED15
:100A6000990B53EC102B12F02FFA914A9060D16041
:100A70009349B1F90010484212F007FB8C4A10600C
:100A8000516017E08E49B1F9020012F0FEFA41EC14
:100A9000180B9FED8E0B53EC102B12F015FA844AB5
:100AA0009060D1608649B1F9000012F0EEFA804AF8
:100AB000106051608748006812F0E7FA7C4A1061C4
:100AC0005161BDEC028B10BD10B52DED068B824837
:100AD000B0F85100462818D006DC372809D03C2849
:100AE0000BD041281DD10CE05A2812D0782818D1FB
:100AF00013E03C207949086017E04B2077490860F3
:100B000013E05A20754908600FE0462073490860D9
:100B10000BE05A207149086007E078206F490860AF
:100B200003E046206D49086000BF00BF6C480078B4
:100B3000032841D15E4890F83E00A8B36948007888
:100B4000012815D16448B0F85C00142808DD63481A
:100B500000681E3012F099FA554A106151612BE07D
:100B60005E48006812F091FA514A1061516123E029
:100B70005C48007800BB5848B0F85C0014280ADDD7
:100B8000564909684942A1F11E0012F07EFA484A0E
:100B90001061516110E051480068404212F075FA4E
:100BA000434A1061516107E0FFE79FED3F0B51ECB5
:100BB000100B3F4A106151614B4890ED101BB0EE95
:100BC000410AF0EE610A51EC100B12F0F7FA4749B6
:100BD000086047480078A8B1434890ED101BB0EE7C
:100BE000410AF0EE610A9FED431B53EC112B51ECCF
:100BF000100B12F0DBF941EC180B12F064FA3F49CC
:100C0000086020E03E48006812F03FFA41EC1A0B01
:100C1000354890ED101BB0EE410AF0EE610A53EC3E
:100C2000102B51EC1A0B12F0A8F841EC190B9FEDA8
:100C3000310B53EC102B12F0B9F941EC180B12F0F8
:100C400042FA2E4908602D4800684FF4B4714843B9
:100C50002C490860084690ED000AB8EEC00A2A4800
:100C600080ED000A2948007801287BD1022027491D
:100C700008701E4890ED000A2348D0ED000A30EEBF
:100C8000600ADFED230AB4EEE00AF1EE10FA48DD67
:100C900090ED000A3EE00000B80000209A997940EB
:100CA0000000FA45150200200000000000000000CE
:100CB000C1060020EC680020BC670020060200206E
:100CC0001A010020000000000000E8BF0000000042
:100CD0000000E83FAC0000205D1B00200401002064
:100CE000440D0020B6000020A80A0020E4000020E7
:100CF000280200200000000000807640E80000206C
:100D00002C020020EC000020F00000200502002052
:100D100000003443DFEDFE0A30EE200A80ED000AC9
:100D200016E0FC4890ED000AFB48D0ED000A30EEDA
:100D3000600ADFEDFA0AB4EEE00AF1EE10FA07D22B
:100D400090ED000ADFEDF20A30EE600A80ED000A55
:100D5000F14890ED000ABDEEC00A10EE100AF0490D
:100D6000C1F83A00EF4890ED101BB0EE410AF0EEEA
:100D7000610A51EC100B12F021FAEB4908600846A9
:100D800090ED000ADFEDE90A20EE200A10EE101ABD
:100D9000084612F0D0F941EC180BB0EE480AF0EE1C
:100DA000680A12F091FD51EC100BE14A1062516299
:100DB000DD4890ED000ADFEDDD0A20EE200A10EE9E
:100DC000101A084612F0B7F941EC180BB0EE480AB9
:100DD000F0EE680A12F008FD51EC100BD44A906254
:100DE000D162D449B1F9000012F04FF941EC190B6E
:100DF000CF49886AC96A41EC100B53EC102B51ECB7
:100E0000190B12F061F89FEDCC0B53EC102B12F084
:100E10005BF8C74A10605160C649B1F900104842FA
:100E200012F033F941EC190BC149086A496A41ECE7
:100E3000100B53EC102B51EC190B12F045F89FEDF1
:100E4000BE0B53EC102B12F03FF8B94A9060D16002
:100E5000B849B1F9020012F018F941EC190BB44984
:100E6000086A496A41EC100B53EC102B51EC190B3A
:100E700012F02AF89FEDB00B53EC102B12F024F86F
:100E8000AB4A9061D161AB49B1F9020012F0FDF8B3
:100E900041EC190BA649886AC96A41EC100B53EC66
:100EA000102B51EC190B12F00FF89FEDA30B53EC24
:100EB000102B12F009F89E4A106151611146086921
:100EC000496941EC100B11468868C96853EC102B36
:100ED00011F053FF924A9060D16095498869C969C1
:100EE00041EC100B92490868496853EC102B11F043
:100EF00044FF8B4A106051609148007802283CD131
:100F0000884890ED101BB0EE410AF0EE610A51ECFA
:100F1000100B12F053F908EE100A8148D0F83A008D
:100F200000EE100AB8EEC00AF0EE400AB0EE480A31
:100F3000844810F0CBFC10EE104A204612F0FBF86B
:100F4000774A106151611146086949691FEDAA1B72
:100F500053EC112B12F01AF907D27B48006812F0FB
:100F600094F86F4A1061516107E077480068404289
:100F700012F08BF86A4A10615161714800780228BA
:100F80003CD16748D0F83A0000EE100AB8EEC00A2B
:100F90006048D0ED000A30EE600A10EE101A0846E4
:100FA00012F0C9F841EC180B9FED680B53EC102BB5
:100FB00012F0D4F822D25A48D0F83A0000EE100AC3
:100FC000B8EEC00A5348D0ED000A30EE600A10EEC9
:100FD000101A084612F0AFF841EC180B9FED5D0BAC
:100FE00053EC102B12F0D2F808D2002054490870AC
:100FF0004B48407E4A49087607204876BDEC068B70
:1010000010BD10B52DED068B5449086800EBD0716A
:101010004910A0EB410191B94649B1F9021048428B
:1010200012F033F83E4A9060D1604249B1F90010A5
:10103000484212F02AF83A4A1060516018E04749D5
:10104000086800EBD0714910A0EB410101290FD1D4
:101050003849B1F9020012F018F8314A9060D160B5
:101060003449B1F9000012F010F82D4A10605160B7
:101070002B4890F83E0000287CD0394890ED040AB7
:10108000D0ED030A30EE600AF7EE080AB4EEE00A8B
:10109000F1EE10FA1CD290ED040AD0ED030A30EE06
:1010A000600AFFEE080AB4EEE00AF1EE10FA0FDD76
:1010B0002C48006860B12C480068401C2A49086030
:1010C0009FED2A0B51EC100B154A1061516106E09F
:1010D0009FED260B51EC100B114A10615161224813
:1010E0000068022804D900201E4908601E490860D3
:1010F0001C48006800287CD10A4890ED101BB0EE17
:10110000410AF0EE610A51EC100B12F057F832E090
:101110000000B443E4000020F0000020000034C3CD
:10112000C1060020A80A00200801002035FA8E3CE4
:10113000000700201A0100209A9999999999E93F8E
:1011400005020020EC6800200401002000000000DF
:101150000000F83F000000000000F8BFB4010020CC
:10116000F4650020F8000020F400002000000000DA
:1011700000000000A8E008EE100AFB48D0F83A0092
:1011800000EE100AB8EEC00AF0EE400AB0EE480ACF
:10119000F64810F09BFB10EE104A204611F0CBFFF2
:1011A000F14A10615161F24890ED101BB0EE410A16
:1011B000F0EE610A51EC100B12F000F8ED490860F6
:1011C000ED480078B0B1EA4890ED101BB0EE410A4E
:1011D000F0EE610A9FEDE91B53EC112B51EC100B63
:1011E00011F0E4FE41EC180B11F06DFFE5490860C9
:1011F00021E070E0E448006811F047FF41EC1A0B71
:10120000DB4890ED101BB0EE410AF0EE610A53ECA2
:10121000102B51EC1A0B11F0B0FD41EC190B9FEDA6
:10122000D70B53EC102B11F0C1FE41EC180B11F051
:101230004AFFD4490860D34800684FF4B47148436A
:10124000D2490860084690ED000AB8EEC00AD048BE
:1012500080ED000AC74890ED000ACD48D0ED000AA5
:1012600030EE600ADFEDCB0AB4EEE00AF1EE10FAE0
:1012700008DD90ED000A5FED5A0A30EE200A80ED9D
:10128000000A16E0BB4890ED000AC148D0ED000A04
:1012900030EE600A5FED5F0AB4EEE00AF1EE10FA9C
:1012A00007D290ED000A5FED660A30EE600A80ED2D
:1012B000000AB74890ED000ABDEEC00A10EE100A11
:1012C000A949C1F83A0006E01FED580B51EC100B8C
:1012D000A54A10615161BDEC068B10BD10B52DED16
:1012E000068BAD49B1F9020011F0CFFE9E4A906025
:1012F000D160A949B1F9000011F0C7FE9A4A106007
:1013000051609B4890ED101BB0EE410AF0EE610A6F
:1013100051EC100B11F052FF964908609648007886
:10132000A8B1934890ED101BB0EE410AF0EE610AAF
:101330009FED921B53EC112B51EC100B11F036FE6C
:1013400041EC180B11F0BFFE8E49086020E08E487A
:10135000006811F09AFE41EC1A0B854890ED101BC5
:10136000B0EE410AF0EE610A53EC102B51EC1A0B6F
:1013700011F003FD41EC190B9FED800B53EC102B8A
:1013800011F014FE41EC180B11F09DFE7D49086030
:101390007C4800684FF4B47148437C4908600846B3
:1013A00090ED000AB8EEC00A794880ED000A714855
:1013B00090ED000A7648D0ED000A30EE600ADFEDCD
:1013C000750AB4EEE00AF1EE10FA08DD90ED000ABD
:1013D0005FEDB10A30EE200A80ED000A16E06548A4
:1013E00090ED000A6A48D0ED000A30EE600A5FED29
:1013F000B50AB4EEE00AF1EE10FA07D290ED000A59
:101400005FEDBD0A30EE600A80ED000A604890EDA5
:10141000000ABDEEC00A10EE100A5349C1F83A00A6
:10142000084690F83E0018B3514890ED101BB0EEFE
:10143000410AF0EE610A51EC100B11F0BFFE08EE0C
:10144000100A4948D0F83A0000EE100AB8EEC00A77
:10145000F0EE400AB0EE480A444810F037FA10EEB9
:10146000104A204611F067FE3F4A1061516106E0C4
:101470001FEDC20B51EC100B3B4A10615161BDECEA
:10148000068B10BD10B52DED048B82B0384890ED61
:10149000101BB0EE410AF0EE610A9FED401B53ECC9
:1014A000112B51EC100B11F059FE03D23D48364977
:1014B000086003E04FF4B470334908602A48007EA6
:1014C000092815D2DFE800F0140511081414140ED1
:1014D0000B00FFF78DFA0EE0FFF700FF0BE0FFF7C0
:1014E00090FD08E0FFF7F0FA05E0FFF7ABFA02E045
:1014F000FFF77EFA00BF00BF1B490869496911F078
:101500005DFE08EE100A18498868C96811F056FE99
:1015100008EE900A14490868496811F04FFE09EE78
:10152000100A11482A30B0EE481AF0EE680AB0EE00
:10153000490AFFF7C4F91C48C06B00B20A49488445
:101540001A48C06B01B2084881841948C06B01B2C7
:101550000548C1841748C06B01B203480185FFF7F5
:101560004AF900244DE00000C1060020EC6800208C
:10157000A80A0020E400002028020020000000004B
:1015800000807640E80000202C020020EC000020C3
:10159000F0000020000034431A0100200000000089
:1015A000008076C098FEFFFF90070020E80700202B
:1015B000400800209808002004EB440101EB0411CE
:1015C000FE4A02EB8100FE49D1ED001AFD4991ED82
:1015D000001AFD49D1ED000AFC4991ED000AFC49D1
:1015E00091ED002ABCEEC22A12EE103AF94991EDB3
:1015F000002ABCEEC22A12EE102A032110F07DFB55
:10160000641C042CD8DBF4480078A0B302242FE03B
:10161000F24901EB4401B1F9001001EE101AB8EEE5
:10162000C11AEF49D1ED001A21EE211AF0EE410A5C
:10163000EA49083901EB4401B1F9001001EE101A32
:10164000B8EEC11AB0EE410A04EB440101EB0411FB
:10165000DA4A02EB810010F039F9BDEEC00A10EE53
:10166000100A01B2DD48083000EB44000180641C20
:10167000042CCDDB34E0FFE700242FE0D74901EB59
:101680004401B1F9001001EE101AB8EEC11AD449A4
:10169000D1ED001A21EE211AF0EE410ACF490839A6
:1016A00001EB4401B1F9001001EE101AB8EEC11AB5
:1016B000B0EE410A04EB440101EB0411BF4A02EB16
:1016C000810010F003F9BDEEC00A10EE100A01B25D
:1016D000C248083000EB44000180641C042CCDDBC0
:1016E000BE482A38007E18B100F09AFB022808D1C3
:1016F00000200346024601460090BA4802F0CCFAA8
:1017000073E0B548007840B3B4482A38B0F93800DF
:1017100000EE100AB8EEC00AF7EE000A20EE200A2A
:10172000BDEEC00A10EE100A00B20090AB482A3895
:10173000B0F9360000EE100AB8EEC00AF7EE000A63
:1017400020EE200ABDEEC00A10EE100A03B20022FD
:101750001146A44802F0A0FA47E0A0482A38B0F9A0
:10176000380000EE100AB8EEC00AF7EE000A20EECC
:10177000200ABDEEC00A10EE100A00B20090974891
:101780002A38B0F9360000EE100AB8EEC00AF7EEBB
:10179000000A20EE200ABDEEC00A10EE100A03B2C5
:1017A0008E482A38B0F9340000EE100AB8EEC00AAC
:1017B000F7EE000A20EE200ABDEEC00A10EE100A75
:1017C00002B286482A38B0F9320000EE100AB8EEAC
:1017D000C00AF7EE000A20EE200ABDEEC00A10EEA5
:1017E000100A01B27F4802F057FA02B0BDEC048B38
:1017F00010BD00B52DED0A8B89B0B0EE409A0220E5
:1018000023E000EB400101EB00116C4A02EB810187
:1018100091ED000A00EB400101EB001102EB8101A8
:10182000D1ED020A70EE200A6C4901EB4001B1F9DA
:10183000001000EE101AB8EEC00A20EE800A05A9CA
:1018400001EB800181ED000A401C0428D9DB022055
:101850004AE000EB400101EB0011584A02EB810124
:1018600091ED090A00EB400101EB001102EB81014F
:10187000D1ED000AB1EE601A5849083901EB400178
:10188000B1F9001000EE901AF8EEE00A01EE200A1D
:1018900000EB400101EB001102EB810191ED021A16
:1018A0004E49083901EB4001B1F9001000EE901AE1
:1018B000F8EEE00A01EE600A00EB400101EB0011D6
:1018C00002EB8101D1ED020A00EB400101EB0011B6
:1018D00002EB810191ED061A00EEC10A01A901EBAC
:1018E000800181ED000A401C0428B2DB9DED070A4F
:1018F00020EE000ADDED080A9DED081A00EE810ACF
:10190000DFED390A20EE208A9DED070ADDED030A9E
:1019100020EE200ADDED080A9DED041A00EE810A92
:10192000DFED320A20EE200ADDED070A9DED081AF0
:1019300070EE810A9FED2E1A01EE200A9DED071A26
:1019400026482A38B0F9260000EE900AF8EEE00AA0
:1019500061EE200ADDED081A20482A38B0F9280087
:1019600001EE100AB8EEC11A41EE810A9FED211A6C
:10197000F0EE408A41EE208A9DED030A20EE000A37
:10198000DDED040A9DED041A00EE810ADFED160A72
:1019900020EE200ADDED030A9DED041A70EE810AA7
:1019A0009FED131A00EE810A9DED031A0B482A38A9
:1019B000B0F9260000EE900A1EE00000BC6700208F
:1019C000D8000020D4000020D0000020DC0000203F
:1019D000CC000020C80000200F020020EB060020F1
:1019E000B80000200068004058DF2C3458DFAC34C9
:1019F0006019C0B7DFC6C137F8EEE00A61EE200A11
:101A0000DDED041AC248B0F9280001EE100AB8EE64
:101A1000C11A41EE810A1FED091A01EE200ADFED1D
:101A2000BD0A30EE200A70EE499A28EEA80AF1EEBF
:101A3000000A68EE200A00EEE90A10EE101A0846C5
:101A400011F079FB41EC1C0B9FEDB30B53EC102B09
:101A500011F093F941EC1B0BB0EE4B0AF0EE6B0A60
:101A600011F096FFB0EE40AAF0EE60AA51EC1A0B0E
:101A700011F0A4FB00EE100AF1EE680A70EE200AE5
:101A8000B0EE000A28EE001A80EE810A09B0BDEC23
:101A90000A8B00BDA248808900EE100AB8EE400A09
:101AA000A04880ED000AD0ED000A9FED9F1A80EE5D
:101AB000810A10EE100A9D49C1F802000846D0F8CC
:101AC000020000EE100AF2EE0E0AB4EEE00AF1EEA9
:101AD00010FA04D89FED960A964880ED000A9348C4
:101AE000D0F8020000EE100AF3EE020AB4EEE00AAB
:101AF000F1EE10FA04DBB7EE000A8E4880ED000A22
:101B0000704710B54FF4C26002F0A5F840F21160C2
:101B100002F0A1F840F2126002F09DF840F213606A
:101B200002F099F810BD10B52DED028B7F48D0F86A
:101B30000210084611F0FFFA41EC180B9FED7E0BE6
:101B400053EC102B11F00AFB0AD27D48B0F851106B
:101B5000B0F85C000A3801EB40007A49088002E0E6
:101B600000207849088077480088002803DC00209E
:101B70007449088006E073480088962802DB9620A6
:101B800070490880BDEC028B10BD10B5FFF7CBFF8C
:101B90004FF4C061022002F038F86A49098801EB6D
:101BA000C10202EB01114FF6FF7202EA810040F21E
:101BB000016102F02AF840F2026140F6980002F05A
:101BC00024F840F2036140F2DC5002F01EF810BD30
:101BD0009FED570A5C4880ED000A002016E04C4A51
:101BE0002A3202EB4002B2F90010002901DB0A465A
:101BF00000E04A4200EE102AB8EEC00A524AD2ED86
:101C0000000A30EE200A82ED000A401C0428E6DBC0
:101C100000201EE03E492A3101EB4001B1F90010DD
:101C200000EE101AB8EEC00A474991ED001AC0EE56
:101C3000010A464991ED000A20EE800ABDEEC00A75
:101C400010EE101A0AB232492A3101EB40010A8023
:101C5000401C0428DEDB70473D48006840F6C41194
:101C6000884204DA3A480068401C3949086038481C
:101C70000068B0F57A7F01DD002070470120FCE7A5
:101C800010B53F21224811F046F80120204908767E
:101C900000204876C1F83A002E490870002424E05C
:101CA00004EB440101EB04112B4A02EB81002B49A8
:101CB000D1ED001A2A4991ED001A2A49D1ED000A06
:101CC000294991ED000A294991ED002ABCEEC22A6A
:101CD00012EE103A264991ED002ABCEEC22A12EE0D
:101CE000102A032110F009F8641C042CD8DBF0EE54
:101CF000081A9FED0F1AF0EE000A9FED0D0A1E2341
:101D00004FF4D77203211B480FF0F7FF10BD0000FE
:101D1000C1060020FA7EEA3F000000000000F03F0C
:101D2000950B0020140100200000C842580B002031
:101D300000000000B80000200000000000803640D5
:101D40005D1B00200C010020C0000020C40000200A
:101D500058020020B6000020BC670020D8000020F8
:101D6000D4000020D0000020DC000020CC000020A7
:101D7000C8000020EC680020FE4908707047FD484C
:101D80000078704710B501700378047D021D13556B
:101D9000037DD35C447D125D43EA82024270027D82
:101DA000521C02F00F0282754378847D021D125D81
:101DB00043EA02128270037D021DD35C447D125DF2
:101DC000934205D1EC4A1268521CEB4B1A6002E0B8
:101DD0000022E94B1A60E84A1268282A03D3037DDF
:101DE000021DD25CC270027D4275027D521C0275DA
:101DF000027D102A01D10022027510BDC17A01298D
:101E000002D1DE4A11700AE0C17A032902D1DB4A0D
:101E1000117004E0C17A022901D1D84A11707047CB
:101E2000D64800787047D6490870704710B5044608
:101E3000D4480078052827D2DFE800F00327629E07
:101E4000B000D148007801281BD1D0480078C0B933
:101E50000120FFF7E8FFCE48C26964219047CC48D3
:101E6000816988470120C74908700020C949088056
:101E7000C94908700120C94908600020C8490860A4
:101E800002E00020C44908708BE0BF4800780128B8
:101E900006D1C0480088401C00B2BE49088002E05C
:101EA0000020BC490880BB48B0F90000462814DD7A
:101EB0000320B4490870B648C2694FF4FA719047DC
:101EC000B348816988470020FFF7ADFF0220B2497F
:101ED00008700020B149086011E00120AE49087087
:101EE0000846007801280AD1A6480078AD49087054
:101EF0000220A4490870C101AB480EF027F950E058
:101F00000120A5490870207A012802D1FFF78BFF34
:101F100002E00020FFF787FF9B480078012806D1E8
:101F20009C480088401C00B29A49088002E00020CA
:101F3000984908809748B0F9000046281BDD032027
:101F4000904908700220944908709148C2694FF482
:101F5000FA7190478E48816988470020FFF763FF38
:101F600000208C4908804FF480718F480EF0F0F803
:101F700001208B49086014E00220874908708448DA
:101F8000016A884748B10020834908707D4800787D
:101F90008449087000207B49087002E004207E49D3
:101FA000087000BF607AE071207AA07176480078EE
:101FB000764908707D4800787D49087010BD7D48DD
:101FC0000078032835D17C48006800EE100A7B4871
:101FD000D0ED000A9FED7A1A70EEC10AB4EEE00A65
:101FE000F1EE10FA0AD890ED000ADFED750A30EE36
:101FF000600A10EE100A704908609EE16E480068A1
:1020000000EE100A6D48D0ED000A9FED6E1A70EEDA
:10201000810AB4EEE00AF1EE10FAEEDB90ED000A70
:10202000DFED680A30EE200A10EE100A62490860FF
:1020300083E1604800780D28DFD163480078B0BBA9
:102040005D48006800EE100AFAEE0E0AB4EEE00AEF
:10205000F1EE10FA06D8BAEE0E0A10EE100A564942
:10206000086010E05448006800EE100ADFED570ADF
:10207000B4EEE00AF1EE10FA05DB9FED540A10EE23
:10208000100A4D4908604B48D0F8220000EE100AB3
:10209000DFED4F0AB4EEE00AF1EE10FA08D89FED3A
:1020A0004C0A10EE100A4349C1F822003BE013E04D
:1020B0004048D0F8220000EE100AF2EE020AB4EE18
:1020C000E00AF1EE10FA2EDBB2EE020A10EE100A70
:1020D0003849C1F8220026E03B480078012822D187
:1020E0003548006800EE100ADFED390AB4EEE00A68
:1020F000F1EE10FA06D89FED360A10EE100A2E49BE
:10210000086010E02C48006800EE100AF2EE020AA7
:10211000B4EEE00AF1EE10FA05DBB2EE020A10EEC0
:10212000100A254908602B48007808B32A4800683F
:1021300000EE100AB5EEC00AF1EE10FA18DB2648E0
:10214000006800EE100AF2EE0C0A30EEC00ABDEE96
:10215000C00A224880ED000A1F48006800EE100AFD
:10216000DFED1F0A30EEC00ABDEEC00A1D483BE09D
:102170006AE00000B90100203C0200204601002076
:1021800021010020180100200C020020390200204B
:10219000220100203A020020200100202804002013
:1021A000C801002019010020000002400D0200209B
:1021B0000E020020440D00204A070020F0020020FB
:1021C0000060F54400900546F8040020000020421D
:1021D000000000C2D8040020750E0020D8010020A5
:1021E00000000CC2DC01002080ED000AFB48C06941
:1021F00000EE100AFA48D0ED000AF8EEE00AB4EE5C
:10220000E00AF1EE10FA08D890ED000AB8EEC00A24
:1022100010EE100AF149C86169E0F048C06900EEAB
:10222000100AF048D0ED000AF8EEE00AB4EEE00A39
:10223000F1EE10FA5BDB90ED000AB8EEC00A10EE8A
:10224000100AE649C86152E0E7480078C0B3E348A5
:10225000006800EE100AB5EEC00AF1EE10FA46D2A0
:10226000DE48006800EE100AF2EE0C0A30EEC00AFA
:10227000BDEEC00ADB4880ED000AD848006800EED9
:10228000100A5FED290A30EEC00ABDEEC00AD4483C
:1022900080ED000AD148C06900EE100AD048D0EDA8
:1022A000000AF8EEE00AB4EEE00AF1EE10FA08D8FF
:1022B00090ED000AB8EEC00A10EE100AC749C861D6
:1022C00015E0C648C06900EE100AC648D0ED000A05
:1022D000F8EEE00AB4EEE00AF1EE10FA07DB90ED5A
:1022E000000AB8EEC00A10EE100ABC49C861BE4828
:1022F000007810BBB948C06900EE100A5FED480ACB
:10230000B4EEE00AF1EE10FA06D81FED4B0A10EE1B
:10231000100AB249C86110E0B048C06900EE100A66
:10232000F2EE0C0AB4EEE00AF1EE10FA05DBB2EEC2
:102330000C0A10EE100AA949C8617047012080F309
:10234000138800BF00BFBFF34F8FA848006800F498
:10235000E060A7490843001DA4490860BFF34F8F00
:1023600000BF00BF00BFFDE7A248007E022844D0A6
:10237000032802D0072870D12BE000209E49087066
:1023800002209E49086000209D4908709D48807D7C
:1023900000F0200058B107209649087603204876BF
:1023A0000120994908709949087095490870954825
:1023B000C08A00F4007058B195480078012807D110
:1023C00002208C4908760320487602209049087044
:1023D00044E08C48807D00F0200068B98D4800788A
:1023E00080F001008B4908700120834908700320A8
:1023F000804908760720487630E08248C08A00F499
:102400000070C8B182480078032815D17948407E11
:10241000082804D1774908760220487609E07E48EA
:102420000078012805D003207249087600207849F9
:1024300008700020764908707248807D00F0200006
:1024400048B107206B4908760220487601206E4982
:1024500008706E49087001E0FFE700BF00BF6F48D9
:102460000078012805D16E480068401C6C4908605E
:1024700002E000206A49086069480068322804D1F7
:10248000002066490870664908606648007801289F
:1024900003D064480078022805D163480068401CD6
:1024A0006149086002E000205F4908605E480068FA
:1024B000282804D900205B4908705B49086054480B
:1024C000007828B959480068401C5849086002E063
:1024D00000205649086055480068282805D9012081
:1024E0004B4908700020514908604948007802288B
:1024F00003D047480078042805D14D480068401CA7
:102500004B49086002E000204949086048480068DB
:10251000282805D903203E49087000204449086056
:10252000704770B505460C4642480078012854D0E3
:10253000FFF71AFF3848007880B99FED3F0A3F48FF
:1025400080ED000A00203E4908603E4908603E498F
:1025500008603E4800683E49086000E000BF2E4821
:102560000078012803D02C480078032808D1394886
:10257000006828B902201F49087600202449087005
:1025800003F0F1FD207800F0100028B33248B0F8D5
:10259000510078280DDC3048B0F851005A2808DD89
:1025A0004FF4FA602D49088040F28A202C490880B7
:1025B00093E02948B0F851005A2853DC2648B0F877
:1025C000510050284EDD4FF4FA60244908804FF442
:1025D000E1702349088080E052E013E3750E00208B
:1025E000DC010020D8010020D80400200CED00E020
:1025F0000000FA05C106002005020020B4010020F9
:102600000602002030070020E00100200402002024
:1026100015020020B6000020C5020020F0010020B5
:10262000F4010020E1010020E8010020FC0100206D
:1026300000020020440D0020000000007C03002068
:10264000800300209003002094030020A4000020B9
:1026500098030020C40100205D1B0020B200002070
:10266000B4000020F848B0F85100502835DC4FF491
:102670009660F64908804FF4AF70F54908802CE069
:10268000F148B0F8510078280BDCEF48B0F8510061
:102690005A2806DDFA20ED490880F020EC49088030
:1026A0001BE0E948B0F851005A280BDCE648B0F8C6
:1026B0005100502806DDC820E4490880D220E449B2
:1026C00008800AE0E048B0F85100502805DCA0205E
:1026D000DE4908809620DE490880DE48007848B947
:1026E000207800F01000012804D00020DA4908709A
:1026F000D8490870208800F4005018B10120D7494B
:10270000087002E00020D5490870208800F40060BD
:1027100018B10120D249087002E00020D0490870A9
:10272000CF480078012811D10420CE49087003F069
:1027300009FCCD480068401CCB4908600846006889
:10274000C82815DD0120C949086011E0C448007897
:1027500070B9C748007801280AD1C6480078C14935
:1027600008700020C4490870C0490860BE4908606C
:10277000208800F4006070B1208800F4807050B1AF
:10278000BE48007838B90120BD490860BB490870CF
:102790000020BC490870B948007828B1BA480068E0
:1027A000401CB949086002E00020B7490860B648FB
:1027B0000068B0F57A7F02D10020B0490870B348B4
:1027C000C08A00F4804080B1B048C08A00F48040E4
:1027D00070B1AF48006858B9AE480068401CAD49B8
:1027E00008600120AA49086002E00020A8490860AA
:1027F000A849086800EBD0714910A0EB410119B15C
:102800000120A549086002E00020A3490860208853
:1028100000F4807018B10120A049087002E0002087
:102820009E4908709E480078012805D19D4800689F
:10283000401C9C49086002E000209A4908609948C1
:102840000068322802D10220954908709448007827
:10285000032805D194480068401C9349086002E0B1
:1028600000209149086090480068322802D1002079
:102870008B490870208800F4805050B18B48006864
:10288000401C8A49086008460068822804D9FFF77E
:1028900055FD002085490860208800F4004020B1E3
:1028A000002083490870834908608349D1F83A10B1
:1028B0004FF4B47291FBF2F000EBD0714910A0EB31
:1028C000410119B101207D49086002E002207B49E5
:1028D0000860207800F0010008BB207800F00200BA
:1028E000E8B9207800F00400C8B9207800F00800AA
:1028F000A8B9734890ED000ADFED720AB4EEE00A61
:10290000F1EE10FA0BDB7048C269322190476E4835
:10291000816988471FEDB80A694880ED000A684858
:1029200090ED000AF7EE000A30EE200A80ED000A72
:102930006648006800287CD1207800F00100A8B12A
:102940000120634988726048016988473F480088D0
:1029500000EE900AF8EE600A20EE200ABDEEC00AF2
:1029600010EE100A00B25B4908801FE0207800F0EA
:102970000200B0B101205649887253480169884766
:1029800032480088404200EE900AF8EEE00A20EE5D
:10299000200ABDEEC00A10EE100A00B24D490880B0
:1029A00004E000204A4988724A4908804A48007871
:1029B00020B1484800884749088005E0454800881C
:1029C000404200B2434908804448007818B1434867
:1029D0000078012837D1207800F00400B0B1012040
:1029E0003B490872384801698847194800884042C5
:1029F00000EE900AF8EEE00A20EE200ABDEEC00AD2
:102A000010EE100A00B2334948806EE0207800F0E2
:102A10000800B8B101202E4908722B480169884787
:102A20000B48008800EE900AF8EE600A20EE200ABB
:102A300000E08CE0BDEEC00A10EE100A00B225499D
:102A4000488052E04CE05FE05D1B0020B2000020B7
:102A5000B400002014020020B00000200C0200206E
:102A60000D02002018010020300400203404002052
:102A70000E020020190100202C0400203802002042
:102A8000300200203B0400203402002030070020E8
:102A9000680200206C020020640200201C04002058
:102AA0001C02002020020020240200200802002036
:102AB0000C06002014060020C1060020B4010020EE
:102AC000BC0100200000C8428F0100201802002035
:102AD000850700201A01002028020020150200208E
:102AE0000020FC494880FC490872FC48007820B16D
:102AF000F8484088F749488029E0F6484088404235
:102B000000B2F449488022E0F548007803281ED13D
:102B1000F4480078D8B9207800F0040038B10020DB
:102B2000EC4948806FF01D00EF4908600FE0207805
:102B300000F0080030B10020E64948801E20EA4934
:102B4000086004E00020E3494880E7490860B5F9DF
:102B5000000010F1960F03DC6FF09500288005E06F
:102B6000B5F90000962801DB96202880B5F902000F
:102B700010F1960F03DC6FF09500688005E0B5F961
:102B80000200962801DB96206880D8480078A0BB18
:102B9000D748006800EE100AB5F9020000EE900A6E
:102BA000F8EEE00AB1EE001A00EEC10A10EE100ACB
:102BB000CF4908600846406800EE100AB5F90000E9
:102BC00000EE900AF8EEE00A9FEDCA1A00EE810AC4
:102BD00010EE100A4860B5F9020000EE100AB8EED7
:102BE000C00A10EE100A8861B5F9000000EE100A64
:102BF000B8EEC00A10EE100AC861FFF7E0F92846E7
:102C0000FFF714F970BD70B504460D4629462046FD
:102C1000FFF7B8F8B848007830B101281DD0022875
:102C200041D0032879D169E060780D2814D10020C3
:102C3000FFF7F9F80020B1490870B148C269642172
:102C40009047AF48816988470120AB490870AD497A
:102C500008600020AC4908605FE060780D2814D15E
:102C60000020FFF7E0F80320A3490870A448C269D8
:102C70004FF4FA719047A2488169884702209F4922
:102C8000087001209F4908600CE001209B490870F2
:102C900002209949087001209A49086001029B4866
:102CA0000DF054FA39E060780D281CD103209249C8
:102CB00008700120934908600220904908709048EC
:102CC000C2694FF4FA7190478D48816988470020A6
:102CD000FFF7A9F84FF480718C480DF039FA012004
:102CE0008949086009E02078022803D10120FFF714
:102CF0009AF802E00020FFF796F80EE002207F49E4
:102D000008707F48016A884730B100207A4908700E
:102D10007A4908707B49086000BF00BF70BD10B5DC
:102D200004467B480078012825D07A48B0F9020093
:102D3000A0F5806000EE100AB8EEC00ADFED760A5A
:102D400020EE200ABDEEC00A10EE100A00B2614962
:102D50000880B4F90000A0F5806000EE100AB8EE1B
:102D6000C00ADFED6D0A20EE200ABDEEC00A10EEAB
:102D7000100A00B2488066480078032826D15C48D3
:102D8000006800EE100AB4F90600A0F5806000EEBD
:102D9000900AF8EEE00A9FED611A00EE810A10EE4B
:102DA000100A534908600846406800EE100AB4F95A
:102DB0000400A0F5806000EE900AF8EEE00A9FEDB6
:102DC000581A00EE810A10EE100A4860B4F90600A5
:102DD000A0F5806000EE100AB8EEC00A10EE100AEE
:102DE00043498861B4F90400A0F5806000EE100A40
:102DF000B8EEC00A10EE100AC861FFF7E0F8A17A39
:102E00004848FFF700FF10BD10B5044604B910BDD7
:102E10002078617840EA0120C0F30A003D4908802B
:102E20006078C010A17840EA4110C0F30A00394927
:102E30004880A0788011E17840EA8100217940EA59
:102E40008120C0F30A0033498880207940106179DD
:102E500040EAC110C0F30A002E49C880207C617C82
:102E600040EA0120C0F30A002A4908816079001174
:102E7000800888726079C0F30110C872A079E17986
:102E800040EA012000B223498881207A617A40EA31
:102E9000012001B21F48C181A07AE17A40EA0120F5
:102EA00001B21C480182217B0175617B4175A07BC9
:102EB000E17B40EA01201749C8820846FEF79EFFE1
:102EC000FEF7AEFF01282FD002283ED0032849D1BB
:102ED00031E000001A0100208507002028020020B0
:102EE00015020020F8010020AC000020B0040020F2
:102EF0004A07002031082C3D180100202001002045
:102F00002201002028040020C80100200000024007
:102F1000440D0020300700209A99993ECDCCCC3D3D
:102F2000A69B443B6E070020D548FFF7F8FE022021
:102F3000FEF722FF16E0D2491631A1F10A00FFF791
:102F4000F0FA0220FEF718FF0CE00020FEF714FF55
:102F5000CC4890ED030ACC4880ED000ACB480EF037
:102F6000FCFE00BF00BF00BF51E730B504460D4670
:102F700029462046FEF706FF60780D281AD1C4487E
:102F8000007848B90320C3490870C148007880F030
:102F90000100BF4908701EE0BD48007801281AD121
:102FA0000220BC490870BA48007880F00100B84996
:102FB000087010E060780E280DD1B748007801281D
:102FC00003D10020B349087005E00120B149087021
:102FD0000020AF49087030BD70B504460D46294643
:102FE0002046FEF7CFFE60780D2823D1AB480EF0C7
:102FF000B4FEAB480EF0B1FEAA480EF0AEFEAA48F1
:103000000EF0ABFEA9480EF0A8FEA9480EF0A5FEF2
:10301000A8480EF0A2FEA8480EF09FFE0120A74986
:1030200008700020A64908700220A64908760020F2
:10303000A54908606078012802D06078022803D191
:103040000020A149086005E06078032802D1012032
:103050009D4908606078072827D190480EF07DFED2
:103060008F480EF07AFE8F480EF077FE8E480EF0F5
:1030700074FE8E480EF071FE8D480EF06EFE8D4887
:103080000EF06BFE8C480EF068FE90480068904988
:103090004860904800680860002088490870032054
:1030A0008849087601208849086060780E2822D176
:1030B0007A480EF052FE7A480EF04FFE79480EF034
:1030C0004CFE79480EF049FE78480EF046FE7848EE
:1030D0000EF043FE77480EF040FE77480EF03DFEBE
:1030E00003207649087002207549087075490876F2
:1030F00000207549086060780B2821D167480EF0E0
:103100002CFE67480EF029FE66480EF026FE664843
:103110000EF023FE65480EF020FE65480EF01DFE01
:103120006A4800686A4948606A4800680860002088
:1031300062490870032063490876012062490860EB
:1031400070BD65480078704763490870704770B576
:103150002DED028B04460D4629462046FEF712FE51
:103160005848007E032804D0072826D0082852D1CA
:103170004AE000205949087060780D2805D10720E1
:10318000504908760320487616E060780E2813D15F
:103190004F48406800EE100ADFED510A30EE200A79
:1031A00010EE100A4A494860082046490876032074
:1031B000487601204B4908602EE06078072822D12C
:1031C000494890ED101BB0EE410AF0EE610A9FED08
:1031D000471B53EC112B51EC100B0FF0E7FE41ECA9
:1031E000180B0FF070FF434908604348007880F0E7
:1031F0000100414908700120384908700320314915
:1032000008760720487607E060780B2802D1012075
:103210003A49087000E000BF00BFBDEC028B70BDF2
:1032200010B53748C269642190473548816988479D
:103230003448C2694B2190473248816988473248F7
:10324000C269462190473048816988472F48C26942
:10325000642190472D48816988479FED2D0A10EE23
:10326000100A1B4908609FED2A0A10EE100A4860F8
:1032700000202849088048808880FFF765FF10BD3E
:1032800030070020AC0B002044040020446E0020D6
:10329000C1010020D4050020D5050020CC6100200C
:1032A000186200202467002070670020F465002069
:1032B000406600208C660020D8660020C5020020F1
:1032C0001C020020C1060020C401002018060020B6
:1032D0004A070020200600201801002005020020D7
:1032E00000003443F8000020A80A0020000000007D
:1032F00000807640D0010020B6000020440D002060
:1033000022010020470100206B0100208F010020D6
:10331000000000001A0100200146CB7A0A7B43EA34
:103320000220704710B5DFEDFE0AB0EE600A0A7B9E
:1033300002704A7B42708A7B80F83B20CA7B827194
:103340000A7CC2714A7C027290F83B4090F83C20A3
:10335000531C80F83C3000F109039C5490F83C2049
:10336000322A02D1002280F83C2000220BE000F13A
:1033700009039B5C00EE903AF8EE600A70EE800A5A
:10338000B0EE600A521C322AF1DBDFEDE60A80EE75
:10339000201AF2EE041AC1EE210A10EE902AC0F8AB
:1033A00002200022E04B1A6010BD0A7B02704A7BAB
:1033B00042708A7B8270CA7BC2700A7C02714A7C2E
:1033C00042718A7C8271704770B52DED088B04467E
:1033D0000D46287BE97A40EA012000B22080A97BD3
:1033E000687B41EA002000B26080B4F9020000EE80
:1033F000100AB8EEC00AD4ED010A30EE600A10EEF1
:10340000101A08460FF097FE41EC1B0B9FEDC70BFF
:1034100053EC102B0FF058FD41EC190B94ED010A01
:1034200010EE101A08460FF086FE41EC1A0B53EC12
:10343000192B0FF0A2FC41EC180B0FF0BFFE6060DF
:10344000297CE87B41EA002000B2208194ED010A4A
:10345000B5EEC00AF1EE10FA0ADD6089B4F9001089
:10346000401AB0F5805F03DDA069401CA06110E048
:1034700094ED010AB5EEC00AF1EE10FA09D26089A6
:10348000B4F90010401A10F5805F02DAA069401EFE
:10349000A061B4F9000000EE100AB8EEC00AD4ED45
:1034A000050A70EE600AB3EE061A80EE810AD4EDCA
:1034B000060AF8EEE00A9FED9F1A00EE810ADFEDA2
:1034C0009E0A80EE201A84ED031A94ED030AD4EDCF
:1034D000040A30EE600A10EE101A08460FF02BFEB8
:1034E00041EC1B0B9FED950B53EC102B0FF0ECFCFC
:1034F00041EC190B94ED040A10EE101A08460FF077
:103500001AFE41EC1A0B53EC192B0FF036FC41EC70
:10351000180B0FF053FE206120886081BDEC088BF2
:1035200070BD0A7BCB7A42EA0322826182698260A3
:10353000826942600269521C026170472DE9F041C4
:1035400004460D460026002720686060287BE97A43
:1035500040EA0120206020686168401AE060E0686D
:1035600010F5805F07DAA06B401CA063E06800F5EF
:103570000050E0610DE0E068B0F5805F07DDA06B12
:10358000401EA063E068A0F50050E06101E0E06843
:10359000E0612168A06B01EB4030A0602068A26967
:1035A000801A00EE100AF8EEC00AA06B4FF4B47255
:1035B000504300EE100AB8EEC00A9FED621A00EE0A
:1035C000810A10EE101A08460FF0B5FD41EC100B01
:1035D00084ED100BE269207D411C217504F120016E
:1035E00041F82020207D062801D1002020750026EA
:1035F00005E004F1200050F826000744761C062E52
:10360000F7DB062097FBF0F0E063A97B687B41EADB
:10361000002000B2A4F85000E87B00F0800038B130
:10362000287CA0F50040E97B40EA0120E06404E04A
:10363000297CE87B41EA0020E064687CA064BDE866
:10364000F0812DE9F0412DED088B04460D46002652
:10365000002720686060697CA87C41EA0020206027
:1036600020686168401AE060E06810F5004F07DAF2
:10367000A06B401CA063E06800F58030E0610DE0C5
:10368000E068B0F5004F07DDA06B401EA063E06866
:10369000A0F58030E06101E0E068E0612168A06BA6
:1036A00001EB0040A0602068A269801A00EE100AB9
:1036B000F8EEC00AA06B4FF4B472504300EE100A4B
:1036C000B8EEC00A9FED201A00EE810A10EE101A23
:1036D00008460FF030FD41EC100B84ED100BE26951
:1036E000207D411C217504F1200141F82020207D1E
:1036F000062801D100202075002605E004F12000F5
:1037000050F826000744761C062EF7DB38460FF0EB
:10371000BCFC41EC1B0B9FED0D0B53EC102B19E087
:10372000000000000000484258020020EBA4D15FD6
:10373000BD90443F0000B4439E6F1042482BAE1F23
:10374000F68F793FFFFF333D0000B43B00000000DF
:103750000000F03F0FF0B8FB41EC1A0B9FEDFB0BA4
:1037600053EC102B0FF022FC41EC190B9FEDF90BE1
:1037700053EC102B0FF0A8FB41EC180B0FF0A3FC3F
:1037800000B2A4F85000E97B287C41EA0020E06305
:10379000E87B00F0800038B1687BA0F50040A97B91
:1037A00040EA0120E06404E0697BA87B41EA002054
:1037B000E064287BA064BDEC088BBDE8F08170B5A7
:1037C00086B006460D4614464FF4A17001900820BD
:1037D0008DF80E0000208DF80C008DF80D00A4204F
:1037E0008DF80F0000218DF810108DF81150290A66
:1037F0008DF812108DF81340210A8DF81410210C49
:103800008DF81510210E8DF8161001A930460BF019
:1038100079FE06B070BD70B50446D0480068401C03
:10382000CE49086040F205222068811A904270D08B
:1038300007DCA0F2411048B1C02856D0C12869D198
:103840006AE0032967D00429F9D127E0082003F0B2
:1038500081F805460FF0D6F92146C148FFF7F1FE81
:10386000BE480068642818D8BD488069BC4989688A
:10387000401ABC49884204DA4FF48030B849886164
:103880000BE0B7488069B6498968401A47F6BC71B1
:10389000884202DDB448B249886176E0082003F02E
:1038A00059F805460FF0AEF92146B048FFF746FE3D
:1038B000AA480068642817D8AC488069AB49896871
:1038C000401A10F5805F04DA42F27E40A749886111
:1038D0000AE0A6488069A5498968401AB0F5805F6A
:1038E00002DDA348A14988614FE0032003F032F8CC
:1038F00005460FF087F999480068322804D8214618
:103900009C48FFF70EFE03E021469A48FFF716FE9B
:103910003BE01AE038E023E0042003F01BF8054602
:103920000FF070F98D480068322804D8214692487B
:10393000FFF7F7FD03E021468F48FFF7FFFD8F48B3
:103940000068401C8D4908601FE0052003F002F864
:1039500005460FF057F921468948FFF735FD14E079
:10396000082002F0F7FF05460FF04CF98548006883
:10397000322804D821468448FFF7D3FD03E02146CE
:103980008148FFF7DBFD00E000BF00BF70BD70B5F0
:1039900004467C480068401C7A49086040F20522D1
:1039A0002068811A904270D013DC40F20222A0EB12
:1039B000020190422CD007DCB0F5A17F7DD0A0F2AF
:1039C0000120002871D10FE0012935D00229F9D159
:1039D00046E0A1F20B41002968D0012967D00229F5
:1039E0007ED00329EED1F4E0032002F0B3FF0546B8
:1039F0000FF008F963480068322804D8214663486C
:103A0000FFF78FFD03E021466048FFF797FDF4E0E4
:103A1000042002F09FFF05460FF0F4F859480068B3
:103A2000322804D821465A48FFF77BFD03E021469F
:103A30005748FFF783FDE0E0052002F08BFF0546C5
:103A40000FF0E0F84F480068322804D8214651486A
:103A5000FFF767FD03E021464E48FFF76FFDCCE01E
:103A6000062002F077FF05460FF0CCF845480068C5
:103A7000322804D821464848FFF753FD03E0214689
:103A80004548FFF75BFDB8E0FFE7062002F062FF64
:103A900005460FF0B7F83B480068322808D82146A1
:103AA0003E48FFF73EFD07E007E0A5E02EE03AE0E4
:103AB00021463A48FFF742FD9FE0072002F04AFF07
:103AC00005460FF09FF821463548FFF7BAFDFEF78F
:103AD00056F9D0B93248806931498968401A00E006
:103AE00064E02049884203DA2E482D4988610CE0C1
:103AF0002B4880692A498968401A47F6BC71884278
:103B000003DD1B48801D2649886176E0207BE17A31
:103B100040EA012024490880A17B607B41EA002023
:103B20002149488069E0207BE17A40EA01201E4972
:103B30008880A17B607B41EA00201B49C880217CF2
:103B4000E07B41EA00201849088156E000000000AF
:103B5000000018406666666666A64C404402002077
:103B6000000B00204480FFFF0000FFFF500A0020F0
:103B70007EE4FFFF48090020A00900205C0200202D
:103B8000AC0B002040020020F80900209007002024
:103B9000E80700204008002098080020F0080020D6
:103BA000A80A002084E40100950B0020207BE17A24
:103BB00040EA0120BB494881A17B607B41EA0020AB
:103BC000B8498881217CE07B41EA0020B549C88161
:103BD00013E0207BE17A40EA0120B2490882A17B10
:103BE000607B41EA0020AF494882217CE07B41EACA
:103BF0000020AC49888200E000BF00BF092002F02D
:103C0000A9FE05460EF0FEFF70BD30B585B0044636
:103C10000D46009500208DF808008DF80900082059
:103C20008DF80A0020128DF80B00E1B28DF80C100F
:103C300000218DF80D108DF80E108DF80F108DF8F5
:103C400010108DF811108DF81210694696480BF07F
:103C500059FC05B030BD10B586B004460194002073
:103C60008DF80C0002208DF80D0006208DF80E0056
:103C700000208DF80F0000218DF810108DF8111024
:103C80008DF812108DF813108DF8141001A98648C4
:103C90000BF038FC06B010BD2DE9F04186B080462F
:103CA0000C4615461E460C9F4FF4007001900020F4
:103CB0008DF80C008DF80D0008208DF80E00200AFC
:103CC0008DF80F008DF81040290A8DF811108DF82D
:103CD0001250310A8DF813108DF81460390A8DF8DE
:103CE00015108DF8167001A940460BF00BFC06B0BC
:103CF000BDE8F0812DE9F04186B080460C461546BE
:103D00001E460C9F40F2FF10019000208DF80C0021
:103D10008DF80D0008208DF80E00200A8DF80F0098
:103D20008DF81040290A8DF811108DF81250310AC3
:103D30008DF813108DF81460390A8DF815108DF870
:103D4000167001A940460BF0DDFB06B0BDE8F0811E
:103D5000F0B585B007460C4615461E4640F2FF20DA
:103D6000009000208DF808008DF8090008208DF8DB
:103D70000A00200A8DF80B00E1B28DF80C10290A18
:103D80008DF80D10E9B28DF80E10310A8DF80F1074
:103D9000F1B28DF8101000218DF811108DF812106D
:103DA000694638460BF0AEFB05B0F0BD13B586B0E2
:103DB000044640F24110019000208DF80C008DF86F
:103DC0000D0008208DF80E00A1208DF80F000021B5
:103DD0008DF810108DF811108DF812109DF81C1030
:103DE0008DF813109DF81D108DF8141000218DF81A
:103DF00015108DF8161001A920460BF083FB08B0B2
:103E000010BD30B585B005460C464FF4A17000904A
:103E100000208DF808008DF8090008208DF80A00B0
:103E2000A1208DF80B0000218DF80C108DF80D10DD
:103E30008DF80E10E1B28DF80F10210A8DF81010D8
:103E400000218DF811108DF81210694628460BF0EC
:103E500059FB05B030BD10B586B004464FF4A170D3
:103E6000019000208DF80C008DF80D0008208DF8D1
:103E70000E0019208DF80F0000218DF810108DF81C
:103E800011108DF812108DF813108DF814108DF894
:103E900015108DF8161001A920460BF033FB06B063
:103EA00010BD0000950B00200068004008B59FED94
:103EB000FE0AFE4880ED030AFD48B0F9500000EE0E
:103EC000100AB8EEC00AF94880ED040A90ED031A12
:103ED000F0EE410A90ED041AB0EE410A0DF0F6FC46
:103EE000F24890ED0B0ABDEEC00A10EE100A00B2C7
:103EF00000231A4619460090EE48FFF7FBFEEC48F7
:103F0000C06C40F2DC51884204DDEB480068401C84
:103F1000E9490860E8480068322812DD0120E749D5
:103F200008600020E4490860E14890ED101BB0EE05
:103F3000410AF0EE610A51EC100B0FF03FF9E04935
:103F4000086008BD10B5DD48006820B1012805D023
:103F5000022868D157E0FFF7A9FF64E0D94800685C
:103F600050B9D74890ED000AF0EE000A30EE600A32
:103F7000D54880ED000A0DE0D2480068012809D13B
:103F8000CF4890ED000ADFEDD10A30EE600ACE484E
:103F900080ED000ACC4890ED000ACD4880ED030A80
:103FA000C34890ED101BB0EE410AF0EE610A51ECEF
:103FB000100B0FF003F9C6490861084690ED031A8B
:103FC000F0EE410A90ED041AB0EE410A0DF07EFCCD
:103FD000BF4890ED0B0ABF4880ED030AB448B0F922
:103FE000500000EE100AB8EEC00ABA4880ED040A8C
:103FF00090ED031AF0EE410A90ED041AB0EE410A7A
:104000000DF064FC0FE0B2480DF0A7FEB1480DF0D2
:10401000A4FE0020AB490860AF490860AF490860C2
:10402000A649086000BF00BF10BD08B50020AC491C
:1040300008700220A149086000231A4619469D48CD
:10404000FFF786FE0020034602460146009099488D
:10405000FFF750FEA3480DF080FEA3480DF07DFE53
:1040600008BD10B5A1480078012805D1A04890ED01
:10407000000A80ED000A0AE09E4890ED000A9E4882
:10408000D0ED000A30EE600A994880ED000A9848A9
:1040900090ED000AFAEE0C0AB4EEE00AF1EE10FA26
:1040A00004D8BAEE0C0A80ED000A0DE0904890EDBD
:1040B000000ADFED920AB4EEE00AF1EE10FA03DB3B
:1040C0009FED8E0A80ED000A894890ED000A854830
:1040D00080ED030A8A4890ED101BB0EE410AF0EE25
:1040E000610A51EC100B0FF069F87E49086108462F
:1040F00090ED031AF0EE410A90ED041AB0EE410A79
:104100000DF0E4FB774890ED0B0A774880ED030A49
:104110007B48B0F9500000EE100AB8EEC00A7248B1
:1041200080ED040A90ED031AF0EE410A90ED041AB6
:10413000B0EE410A0DF0CAFB6B4890ED0B0ABDEEE4
:10414000C00A10EE100A01B200231A465948FFF7C0
:10415000FFFD10BD10B5674890ED000A6948D0ED2D
:10416000000A20EE200A624880ED000A90ED000A65
:10417000FAEE0C0AB4EEE00AF1EE10FA04D8BAEE48
:104180000C0A80ED000A0DE0594890ED000ADFEDC1
:104190005B0AB4EEE00AF1EE10FA03DB9FED570A7A
:1041A00080ED000A524890ED000A4E4880ED030A67
:1041B000534890ED101BB0EE410AF0EE610A51EC4D
:1041C000100B0EF0FBFF47490861084690ED031AFB
:1041D000F0EE410A90ED041AB0EE410A0DF076FBC4
:1041E000404890ED0B0A404880ED030A4448B0F97E
:1041F000500000EE100AB8EEC00A3B4880ED040AF9
:1042000090ED031AF0EE410A90ED041AB0EE410A67
:104210000DF05CFB344890ED0B0ABDEEC00A10EEC9
:10422000100A01B200231A462248FFF791FD10BD83
:1042300010B501202A4908709FED330A294880ED06
:10424000030A2F4890ED101BB0EE410AF0EE610A10
:1042500051EC100B0EF0B2FF22490861084690EDB8
:10426000031AF0EE410A90ED041AB0EE410A0DF087
:104270002DFB1C4890ED0B0A1B4880ED030A2048DB
:10428000B0F9500000EE100AB8EEC00A164880EDF2
:10429000040A90ED031AF0EE410A90ED041AB0EE14
:1042A000410A0DF013FB31E00000C842F80C002079
:1042B000F809002000640040740200207002002011
:1042C00084020020640200207802002000003543B0
:1042D000600C0020AC0C00206C0200206802002062
:1042E00060020020C80B0020140C0020F8040020FD
:1042F00088020020200600209402002000002442B2
:10430000500A00207C020020000000004D4890ED83
:104310000B0ABDEEC00A10EE100A01B200231A46C5
:104320004948FFF715FD494890ED040AD0ED030A0E
:1043300030EE600AF6EE000AB4EEE00AF1EE10FA92
:104340000FD890ED040AD0ED030A30EE600AFEEEBD
:10435000000AB4EEE00AF1EE10FA02DB02203C495A
:10436000087010BD10B53A480078012804D0022822
:1043700005D0032809D105E0FFF75AFF08E0FFF751
:10438000E9FE05E0FFF76DFE02E0FFF74EFE00BF1D
:1043900000BF10BD10B500202D49087000231A463B
:1043A00019462948FFF7D4FCF3EE0E1A9FED291A9F
:1043B000F2EE040A1FED2C0A32234FF47A72032125
:1043C00022480DF09AFCF1EE041A1FED311A5FED50
:1043D0004A0A1FED330A642342F21072032119487E
:1043E0000DF08BFCF3EE041A1FED391AF1EE040AFE
:1043F0001FED3B0A642342F6E062032116480DF0EC
:104400007CFC5FED3F1A1FED401ADFED140A1FED33
:10441000420A642341F65832032111480DF06DFC25
:10442000F1EE041A1FED481AF3EE040A1FED4A0AD2
:104430004FF47A6342F6E06203210A480DF05DFC16
:1044400010BD0000140C002000640040C80B0020C8
:1044500060020020CDCCCC3D600C00200000484222
:10446000AC0C0020F80C002010B5FE48C2694FF4D7
:1044700096719047FC48C2694FF496719047F9488D
:1044800081698847F848816988479FEDF80A10EEEE
:10449000100AF74908609FEDF50A10EE100A48600F
:1044A00010BD10B50020F3490870FFF7DDFFF2489A
:1044B0000DF053FCF1480DF050FCF1480DF04DFCAF
:1044C000F0480DF04AFCF0480DF047FCEF480DF0C5
:1044D00044FCEF480DF041FCEE480DF03EFC10BDF1
:1044E00010EE100AE349C1F8360010EE900AC1F848
:1044F0003A0011EE100AC1F8420011EE900AC1F81C
:104500004600704710B52DED048BE3480078D8BB0A
:10451000F0EE001A9FEDE11AF7EE080A9FEDD30ABC
:104520006423C8220321DE480DF0E7FBF0EE001AF9
:104530009FEDDC1AF0EE000A9FEDCC0A32234FF417
:10454000FA720321D8480DF0D8FBD848806AD449C4
:10455000C860D648016808460EF0EDFD41EC190B25
:10456000D34890ED101BB0EE410AF0EE610A53EC17
:10457000102B51EC190B0EF0A4FC41EC180B0EF0B3
:104580001DFEC749086177E0FFE7C34800780128AE
:1045900072D1F2EE041A9FEDC71AF3EE040A9FEDF2
:1045A000B30A0A234FF47A720321BD480DF0A5FB2C
:1045B000DFEDC11A9FEDAD1AF2EE040A9FEDAB0AD2
:1045C00064234FF47A720321B7480DF096FBBB4881
:1045D00090ED000AB24880ED040AB94890ED000A57
:1045E000AF4880ED030A90ED030AD0ED040A30EEE7
:1045F000600A10EE101A08460EF09DFD41EC190BF2
:10460000B0EE490AF0EE690A0FF052F9B0EE408AB6
:10461000F0EE608A9FEDAB0B53EC102B51EC180BB6
:104620000EF09CFD28D200209B490870A749087015
:104630009F4890ED101BB0EE410AF0EE610A51EC7C
:10464000100B0EF0BBFD99490860A14890ED101BBE
:10465000B0EE410AF0EE610A51EC100B81F000411E
:1046600041EC180B0EF0AAFD90494860934890ED7C
:10467000000A984880ED000A894890ED031AF0EE90
:10468000410A90ED041AB0EE410A0DF01FF984487A
:1046900090ED0B0AF0EE400A8F4890ED000AB1EE63
:1046A000400A81480DF012F9894890ED101BB0EED8
:1046B000410AF0EE610A51EC100B81F0004141EC2F
:1046C000180B0EF07BFD6B49C1F82A007748406853
:1046D00000EE100A7548006A00EE900A30EE200ADB
:1046E00010EE100AC1F81E00BDEC048B10BD10B511
:1046F0007A48007820B1012830D0032873D148E0EF
:10470000774800685B49C1F82A0059484068C1F8F9
:104710001E00674890ED101BB0EE410AF0EE610AF2
:1047200051EC100B0EF04AFD5249C1F82E005048D2
:104730000068C1F822005E4890ED101BB0EE410AFF
:10474000F0EE610A51EC100B0EF038FD654908607F
:104750004848D0F822006449086045E0574800689E
:104760004449C1F82E005E480068C1F82A005F483D
:10477000006800EE100A5E48D0ED000A30EE200A14
:1047800010EE100AC1F81E0058484068C1F8220017
:104790002AE04A4890ED000AB1EE400A10EE100AF5
:1047A0003449C1F82E004E480068C1F82A004F482D
:1047B000006800EE100A4F48D0ED000A30EE200AE3
:1047C00010EE100AC1F81E004848406800EE100ABA
:1047D0004948D0ED000A30EE200A10EE100AC1F868
:1047E000220001E0FFE700BF00BF10BD10B52DEDB6
:1047F000028B002041490860012041490870FAEE0F
:10480000041A9FED401AFBEE040A9FED180A0A23D2
:104810004FF47A72032118480DF06FFADFED261A73
:104820009FED121AF2EE080A9FED100A6423DA00D7
:10483000032112480DF061FA204890ED000AB1EE14
:10484000400A10EE100A0B49C1F82E009FED070A2E
:1048500010EE100AC1F822001D4890ED101BB0EEBA
:10486000410A51E0280000207000002000000000F4
:104870004A070020440D0020406600207067002099
:10488000F465002024670020186200206462002084
:10489000CC610020B0620020F80400200AD7A33CBD
:1048A000B80E00200AD7233C040F0020750E00200C
:1048B000000B0020CDCCCC3D00004842200600205B
:1048C000FC040020B81E85EB51B89E3FD8040020A0
:1048D000A80A00208C0200202C060020C50200201F
:1048E000180600207403002070030020640F0020CD
:1048F00068030020600300205C0300207002002099
:1049000060020020CDCCCCBDF0EE610A51EC100B62
:1049100081F000410EF052FCFC49C1F82A00FC482D
:1049200090ED101BB0EE410AF0EE610A9FEDF91B0D
:1049300053EC112B51EC100B0EF038FB0EF0C3FBB7
:10494000F64908600846006840424FF4B471484395
:10495000F3490860084690ED000AB8EEC00A10EE70
:10496000100AEA49C1F81E000846D0F81E0000EE01
:10497000100A0846D0F82A0000EE900A30EE600ACD
:10498000DFEDE80AB4EEE00AF1EE10FA0DDB0846BE
:10499000D0F81E0000EE100ADFEDE30A30EE600AE8
:1049A00010EE100AC1F81E0020E0D848D0F81E0012
:1049B00000EE100AD548D0F82A0000EE900A30EE3A
:1049C000600ADFEDDA0AB4EEE00AF1EE10FA0DD279
:1049D000CE48D0F81E0000EE100ADFEDD30A30EE0C
:1049E000200A10EE100AC949C1F81E00C748D0F8C5
:1049F0002A0000EE100AC548D0F81E0000EE900A0A
:104A000030EE600AFEEE000AB4EEE00AF1EE10FAB3
:104A10007EDBBE48D0F82A0000EE100ABB48D0F872
:104A20001E0000EE900A30EE600AF6EE000AB4EEC8
:104A3000E00AF1EE10FA6BD8B448D0F82E0000EE80
:104A4000100AB248D0F8220000EE900A30EE600A58
:104A5000FFEE080AB4EEE00AF1EE10FA58DBAB48BC
:104A6000D0F82E0000EE100AA848D0F8220000EE80
:104A7000900A30EE600AF7EE080AB4EEE00AF1EEB2
:104A800010FA6DD8AA480068401CA9490860A948D6
:104A9000806BA9490860A6480068012860D10320FE
:104AA0009A4908700120A54981F83E00A448006891
:104AB0009649C1F82A00A2480068A24948609D486A
:104AC00090ED101BB0EE410AF0EE610A51EC100BB4
:104AD0000EF074FB9B490860964890ED101BB0EEF9
:104AE000410AF0EE610A51EC100B0EF067FB96499B
:104AF0000860032091490876002094490870944981
:104B000008608B490860012092490870002000E08D
:104B100026E08A49C1F83A0001208F490860002048
:104B20008E490870DFED8E1A1FEDA41AF1EE040A0B
:104B30001FEDB20A14234FF4C872032189480DF007
:104B4000DCF8F0EE001A1FEDA91AF0EE000A1FEDD6
:104B5000B90A32234FF47A72032183480DF0CDF85D
:104B6000BDEC028B10BD10B568480078012806D056
:104B700002280DD0032805D00D280AD105E0FFF743
:104B800035FE09E0FFF7B3FD06E0FFF7BBFC03E0ED
:104B900002E0FFF786FC00BF00BF00F0F2FC002837
:104BA0007DD06A48007800287AD1584800780128DA
:104BB00048D15648D0F81E0000EE900A5348D0F86D
:104BC0002A0000EE100A69480CF080FE4F48D0F829
:104BD000220000EE900A4D48D0F82E0000EE100A98
:104BE00060480CF073FE5F4890ED0B1AF0EE410A3E
:104BF0005E4890ED0B1AB0EE410A5D4890ED001A48
:104C0000F1EE411A5B4890ED001AFFF769FC3F484E
:104C1000D0F8360000EE900A3C48D0F8420000EE92
:104C2000100A55480CF052FE3848D0F83A0000EE11
:104C3000900A3648D0F8460000EE100A4A480CF0B8
:104C400045FE4AE03148D0F81E0000EE900A2F4899
:104C5000D0F82A0000EE100A44480CF037FE2B482A
:104C6000D0F8220000EE900A2848D0F82E0000EE7E
:104C7000100A3C480CF02AFE3A4890ED0B1AF0EE70
:104C8000410A3A4890ED0B1AB0EE410A384890EDCF
:104C9000001AF1EE411A374890ED001A01E090E158
:104CA00070E0FFF71DFC1948D0F8360000EE900ABE
:104CB0001648D0F8420000EE100A2F480CF006FE0D
:104CC0001248D0F83A0000EE900A1048D0F846009A
:104CD00000EE100A24480CF0F9FD234890ED0B0A71
:104CE000BDEEC00A10EE100A01B22448FFF75EF8CC
:104CF000214890ED0B0ABDEEC00A10EE100A4042AA
:104D000001B21F48FFF77DF86AE10000440D002062
:104D1000A80A00200000000000807640E002002089
:104D2000E4020020000035430000B443000033C318
:104D3000E8020020000B0020C8020020C10600206D
:104D4000180600204A070020F0020020C5020020BB
:104D50001802002028020020300200203B0400201E
:104D6000000020424066002070670020F4650020AB
:104D70002C06002028060020246700200064004044
:104D800000680040FE480078022854D1FD48D0F861
:104D90001E0000EE900AFB48D0F82A0000EE100A30
:104DA000F9480CF093FDF94890ED0B1AF0EE410A2A
:104DB000F54890ED0B1AB0EE410AF54890ED001A57
:104DC000F1EE411AF34890ED001AFFF789FBED4828
:104DD000D0F8360000EE900AEA48D0F8420000EE23
:104DE000100AED480CF072FDEC48007858B1EC4820
:104DF00090ED0B0ABDEEC00A10EE100A01B2E948B0
:104E0000FEF7D4FF0AE0E64890ED0B0ABDEEC00ABB
:104E100010EE100A01B2E348FEF7C8FFDE4890ED3D
:104E20000B0ABDEEC00A10EE100A404201B2DE4885
:104E3000FEF7E7FFD4E0D2480078032860D1D148DC
:104E4000D0F81E0000EE900ACE48D0F82A0000EEFE
:104E5000100AD6480CF03AFDCA48D0F8220000EEFD
:104E6000900AC848D0F82E0000EE100AD0480CF086
:104E70002DFDCF4890ED0B1AF0EE410ACB4890ED96
:104E80000B1AB0EE410AC24890ED001AF1EE411A39
:104E9000C04890ED001AFFF723FBBA48D0F836005F
:104EA00000EE900AB748D0F8420000EE100AC14860
:104EB0000CF00CFDB348D0F83A0000EE900AB1486F
:104EC000D0F8460000EE100ABB480CF0FFFCBA48D0
:104ED00090ED0B0ABDEEC00A10EE100A404201B27E
:104EE000B048FEF763FFB34890ED0B0ABDEEC00A71
:104EF00010EE100A404201B2AB48FEF782FF6FE0AD
:104F0000A048D0F81E0000EE900A9E48D0F82A0073
:104F100000EE100AA9480CF0D9FC9A48D0F82200FB
:104F200000EE900A9748D0F82E0000EE100AA44830
:104F30000CF0CCFCA24890ED0B1AF0EE410A9F4811
:104F400090ED0B1AB0EE410A914890ED001AF1EE87
:104F5000411A904890ED001AFFF7C2FA8948D0F83C
:104F6000360000EE900A8748D0F8420000EE100AA2
:104F700094480CF0ABFC8348D0F83A0000EE900A5D
:104F80008048D0F8460000EE100A8F480CF09EFCD6
:104F90008D4890ED0B0ABDEEC00A10EE100A40429B
:104FA00001B28048FEF702FF864890ED0B0ABDEE85
:104FB000C00A10EE100A404201B27B48FEF721FF02
:104FC0000EE0FFF76EFAFFF730F8002009F0F1FE6F
:104FD00000217448FEF7EAFE00217348FEF711FF36
:104FE00010BDB0EE401ADFED791AF0EE610A002034
:104FF00014E0774A411C02EB8101D1ED001A114601
:1050000001EB8001C1ED001A114601EB8001D1EDE9
:10501000001A71EEA01AF0EE610A401C0428E8DBC9
:105020006B4880ED041AD0ED041A71EEA01AF0EE70
:10503000610AF1EE041A80EEA10A704730B52DED39
:10504000108B85B0F0EE409AB0EE608AF0EE418AA7
:105050009FED5E0AB0EE40AA9FED5C0AF0EE40EADA
:105060009FED5A0A8DED040A9FED580A8DED030A53
:105070009FED560AF0EE40AA9FED540A10EE104A3A
:10508000CDED039AB0EE48AAF0EE68AA1AEE100A27
:105090000EF051F841EC1C0B9FED4E0A2AEE800AEF
:1050A00010EE101A08460EF046F841EC1B0BB0EE5D
:1050B0004B0AF0EE6B0A0EF097FBB0EE40DAF0EE22
:1050C00060DA53EC1C2B51EC1D0B0DF0FDFE41EC96
:1050D0001F0B0EF073F80EEE900A1AEE100A0EF087
:1050E0002AF841EC1C0B9FED3B0A2AEE800A10EED9
:1050F000101A08460EF01FF841EC1D0BB0EE4D0AD9
:10510000F0EE6D0A0EF0E0FBB0EE40FAF0EE60FA61
:1051100053EC1C2B51EC1F0B0DF0D6FE41EC1B0B7E
:105120000EF04CF80490DDED039A29EEA90AB0EEDA
:1051300040EA2AEE0A0AB0EE409A9FED270A29EECD
:10514000000AF0EE000A2EEE201AC0EE010A9DEDD4
:10515000040A30EE800ADFED210A69EE200A60EED3
:10516000200A80EE8E0A39EE400A10EE105A2846C8
:105170000DF0E1FF41EC1C0BB0EE4C0A30E00000FA
:10518000C5020020440D00202C640020786400201B
:105190002C0600202806002010650020F8040020BE
:1051A000040F00200064004000680040FC62002002
:1051B00048630020E063002094630020CC6100205D
:1051C00018620020B062002064620020000000002D
:1051D000A40E002035FA8E3CCDCC1C41CDCC9C4198
:1051E000F0EE6C0A0EF0D4FBB0EE40BAF0EE60BA0E
:1051F00051EC1B0B0DF0E2FF02901FED090A29EEA6
:10520000000A8DED010A9DED020A3EEEC00A60EE35
:105210000E0A9DED010A80EE801A11EE104A20461A
:105220000DF089FF41EC1C0BB0EE4C0AF0EE6C0A5D
:105230000EF06EF9B0EE40BAF0EE60BA9FED8B0B57
:1052400053EC102B51EC1B0B0DF03EFE41EC1D0BF3
:105250000DF0B4FF0AEE900AB0EE6A0A05B0BDEC9C
:10526000108B30BD10B5612182480DF054FD002037
:1052700080490870487081F84E00B1EE040A10EEC3
:10528000100AC1F84F00FAEE041A9FED7B1AFBEEEC
:10529000040A1FED320A0A234FF47A720321774879
:1052A0000CF02BFDDFED761A1FED381AF2EE040A32
:1052B0001FED3A0A64234FF47A72032171480CF00F
:1052C0001CFDF2EE041A9FED701AF2EE0A0A1FEDB1
:1052D000410A142340F6B83203216C480CF00DFD4E
:1052E0005FED461AB6EE001AF2EE080A1FED490A03
:1052F00032234FF4FA62032165480CF0FEFCF0EE15
:10530000001A9FED641AF7EE080A1FED500A642395
:10531000C822032160480CF0F0FCF0EE001A9FED6B
:105320005F1AF0EE000A1FED570A32234FF4FA72AB
:1053300003215B480CF0E1FCF0EE001A9FED591AD6
:10534000F3EE010A1FED5F0A142340F6B832032181
:1053500055480CF0D2FCDFED551A9FED521AF3EED2
:10536000030A1FED660A32234FF4FA620321504804
:105370000CF0C3FC5FED6B1A9FED4A1AF2EE0E0AB9
:105380001FED6E0A03234FF4FA62194649480CF0E8
:10539000B4FC5FED721A9FED481AF2EE040A1FED9D
:1053A000750A41F2707346F67812032143480CF0F7
:1053B000A4FCF2EE0E1AB5EE001AF3EE050A1FED8C
:1053C0007D0A112340F6B83203213D480CF095FCCC
:1053D000F3EE051A9FED3B1AF3EE090A1FED850A5D
:1053E00040F6D86346F29052032137480CF085FC12
:1053F000F3EE091A9FED351AF2EE040A1FED8D0A3D
:105400006423C822032132480CF077FCF3EE0E1A15
:105410009FED301ADFED300A1FED940A40F68C2321
:1054200044F6206203212D480CF067FCF2EE081AC6
:105430009FED2B1ADFED2B0A1FED9C0A15234FF46D
:105440007A72032128480CF058FCF3EE011AB6EEEC
:10545000001AF2EE0A0A1FEDA30A4FF47A6344F62B
:105460002062032121480CF048FC10BD0000002000
:10547000DCA54C40440D0020CDCCCCBD40660020C6
:1054800000004842706700209A99193EF465002098
:10549000246700200AD7A33CB80E00200AD7233C7B
:1054A000040F0020CDCCCC3D2C6400203333F33FDF
:1054B00010650020186200207B142E3E64620020DC
:1054C000CC61002066660640B0620020C3F5A83EAD
:1054D00048630020CDCCCC3E0000C842946300203D
:1054E0007B14AE3E0000DC42FC620020E063002042
:1054F00010B534480078012806D0FCF791FC02284A
:1055000002D03048007818B900202F49087616E0FC
:105510002D48007E072812D02B48007E02280ED08E
:105520002948007E08280AD0264800780D2806D091
:1055300026480078012802D003202349087610BDB0
:1055400010B52048007840B9FCF76AFC022804D066
:1055500001201C490870FEF787FFFCF761FC022858
:1055600008D10020174908701849087018490870B8
:10557000FEF77AFF10BD10B5FFF7E2FFFFF7B8FFA7
:1055800010BD10B50F48007838B1FCF749FC02286F
:1055900003D0012001F0C0FA08B1002010BD0120A5
:1055A000FCE710B50848007E38B1FCF739FC02284A
:1055B00003D0022001F0B0FA08B1002010BD012094
:1055C000FCE70000440D0020C1060020C5020020B9
:1055D0003B040020FE48B0F84F000A2804D14FF4E5
:1055E000FA60FC49088019E0FB48006848B9F848AF
:1055F000B0F84F00102804D14FF44860F5490880F6
:105600000CE0F5480068012804D140F6AC50F1499F
:10561000088003E04FF4FA60EE490880704700B557
:105620002DED028B81B0ED48007830B1012811D00A
:1056300002282DD0042875D155E00020E7490870D4
:105640009FEDE70AE74880ED290A9FEDE50A80ED26
:10565000160A74E0E44801698847DE480088404241
:1056600000EE900AF8EEE00A20EE200ADD4880ED18
:10567000160ADD4801698847D648008800EE900A7E
:10568000F8EE600A20EE200AD64880ED290A56E09E
:10569000D54801698847CF48008800EE900AF8EEA7
:1056A000600ACC48008801EE100AB8EE411A41EEBB
:1056B000400AB1EE600ACB4880ED160ACA4801697B
:1056C0008847C448008800EE900AF8EE600AC14896
:1056D000008801EE100AB8EE411A41EE400AC148B6
:1056E000C0ED290A2BE0C04801698847B948008805
:1056F00000EE900AF8EE600A20EE200AB94880ED2C
:10570000160AB94801698847B2480088404200EE4D
:10571000900AF8EEE00A20EE200AB24880ED290A4D
:105720000DE0FFE70020AD4908709FEDAD0AAD48E0
:1057300080ED290A9FEDAA0A80ED160A00BF00BF7E
:10574000AA480068401CA9490860A948B0F950005F
:10575000A84909680844A7490860A748B0F950005B
:10576000A64909680844A5490860A0480068A449FA
:105770000968884220DB9F480068A149096890FBBE
:10578000F1F000EE100AB8EEC00A964880ED170A54
:105790009A4800689A49096890FBF1F000EE100AF7
:1057A000B8EEC00A8F4880ED2A0A00208F490860B1
:1057B00090490860914908608848007801280FD115
:1057C0008B48C06B10F11E0F0ADA8B48C06B1E2885
:1057D00006DD01208B49087000208B4908602EE00F
:1057E0007E480078012824D18148C06B10F1050F54
:1057F0001FDD7F48C06B05281BDA7F48C06B05287A
:1058000017DA7D48C06B10F1050F12DD7E48006885
:10581000401C7D4908600846006832280FD10420EA
:105820006E490870012079490860002076490860B7
:1058300005E06A48007810B9002072490870734882
:105840000068012812D172480068401C7049086045
:1058500008460068B0F5C87F08D100206B49086091
:1058600001205E4908700020694908605D4890ED9C
:10587000161AF0EE410A90ED171AB0EE410A4C30BC
:105880000CF024F8574890ED291AF0EE410A90EDFB
:105890002A1AB0EE410A98300CF018F8514890EDF1
:1058A0001E8AD0ED318A5248806C5A2803D2524861
:1058B000806C5A2805D301205649086002205649B9
:1058C00008604B48806C462806D84B48806C4628B8
:1058D00002D800204F490860FCF7A2FA022808D13C
:1058E000002003460246014600904C48FEF7D4F9DA
:1058F00033E048480068012802D04948006840B9B0
:10590000002003460246014600904448FEF7C4F9D1
:1059100023E0002000903348D0ED310A414890ED5B
:10592000000AB8EEC00A30EE800ABDEEC00A10EEE2
:10593000100A02B22B48D0ED1E0A3A4890ED000A38
:10594000B8EEC00A30EEC00ABDEEC00A10EE100A72
:1059500001B200233148FEF79FF901B0BDEC028B84
:1059600000BD08B530480068A0B1304890ED030A8A
:105970002F4880ED000A00202B4908602D4908704F
:1059800001202D4908702D480CF0E7F92C480CF047
:10599000E4F9F1E12B480068002871D11448B0F90E
:1059A000500010F57A7F6BDA1348B0F95000B0F56B
:1059B0007A7F65DD1C4800680028EED10748007832
:1059C0000128EAD120480068401C1F4908603DE0DA
:1059D0005D1B0020C803002064020020200100207D
:1059E00000000000D069002022010020EC0300200C
:1059F00048090020E4030020A0090020E80300205B
:105A0000F00300205C040020DC030020D40300200D
:105A1000D803002024040020C003002000640040BC
:105A200028040020E003002030020020AC0B0020FE
:105A3000440400203A0400203B040020F86D0020BC
:105A4000446E0020F803002068040020FE48B0F9EE
:105A5000500000EE900AF8EEE00AB0EE600ADFEDCA
:105A6000FB0AFB480BF032FFFA48007848B9FA48C5
:105A700090ED000ABCEEC00AF54880ED0F0A25E063
:105A80000EE1F34991ED0B0ADFEDF40AB4EEE00A02
:105A9000F1EE10FA0FD2EC49B1F95000002801DB09
:105AA000014600E04142142905DAED480068401C37
:105AB000EB49086002E00020E9490860E848006816
:105AC000022803D14FF4FA60E149C863DE48806CD4
:105AD000502804D30120E3490860E3490860DA480C
